:020000040800F2
:1000000048070020CD010008830200087B02000899
:100010007F020008750200089B0300080000000032
:10002000000000000000000000000000870200083F
:10003000790200080000000085020008B1020008F3
:10004000E3010008E3010008E3010008E301000800
:10005000E3010008E3010008E3010008E3010008F0
:10006000E3010008E3010008E3010008E3010008E0
:10007000E3010008E3010008E3010008E3010008D0
:10008000E3010008E3010008E3010008E3010008C0
:10009000E3010008E3010008E3010008E3010008B0
:1000A000E3010008E3010008E3010008E3010008A0
:1000B000E3010008E3010008E3010008E301000890
:1000C000E3010008E3010008E3010008E301000880
:1000D000E3010008B5020008E3010008E30100089D
:1000E000E3010008E3010008E3010008E301000860
:1000F000E3010008E3010008E3010008E301000850
:10010000E3010008E3010008E3010008E30100083F
:10011000E3010008E3010008E3010008E30100082F
:10012000E3010008E3010008E3010008E30100081F
:1001300000F002F800F03AF80AA090E8000C8244BF
:100140008344AAF10107DA4501D100F02FF8AFF29C
:10015000090EBAE80F0013F0010F18BFFB1A43F0A5
:10016000010318478C020000AC020000103A24BFC3
:1001700078C878C1FAD8520724BF30C830C144BF0C
:1001800004680C607047000000230024002500264E
:10019000103A28BF78C1FBD8520728BF30C148BFEA
:1001A0000B6070471FB51FBD10B510BD00F02FF8D4
:1001B0001146FFF7F7FF00F017F900F04DF803B410
:1001C000FFF7F2FF03BC00F0EAF800000848004720
:1001D000FEE7FEE7FEE7FEE7FEE7FEE7FEE7FEE7F7
:1001E000FEE7FEE703480449044A054B7047000058
:1001F0003101000848010020480700204803002082
:100200004803002070477047704770477047754635
:1002100000F02CF8AE4605006946534620F0070072
:10022000854618B020B5FFF7DDFFBDE820404FF050
:1002300000064FF000074FF000084FF0000B21F0D0
:100240000701AC46ACE8C009ACE8C009ACE8C0099D
:10025000ACE8C0098D46704710B50446AFF3008086
:100260002046BDE81040FFF7AABF000000487047D5
:10027000E800002000BFFEE7704700BFFEE700BFB8
:10028000FEE7704770477047042808D14FF0E0211F
:10029000096941F004014FF0E022116107E04FF0DD
:1002A000E021096921F004014FF0E022116170475B
:1002B0007047000010B540F225511D4800F03EF88F
:1002C00010B31B4800F064F8C4B21A48008800F468
:1002D0000040C8B91748008800F4804060B10A2C7B
:1002E00003D000201349088020E01248008840F421
:1002F00000401049088019E00D2C06D10D480088F7
:1003000040F480400B49088010E00A480088C0F3A0
:100310000D0009490C5407480088401C0549088015
:1003200008460088C72801DD0020088010BD0000B5
:10033000003801401C0000202000002070B502465B
:10034000002400230025002040F66A16B14200D1A7
:1003500000BFC1F3421501F01F03012606FA03F3A3
:10036000012D02D19689334006E0022D02D1168A72
:10037000334001E0968A33400C12012606FA04F459
:100380001688344013B10CB1012000E0002070BD8C
:1003900001468888C0F30800704700BFFEE700BF31
:1003A0007047000010B56FF00400FFF76DFF0A48BA
:1003B00000680A49B0FBF1F0094908700846007866
:1003C00000EB4001C1EBC0104FF6FF7101EAC00025
:1003D0000449088010BD00000000002000127A00CF
:1003E0001400002016000020FFF7DCFF00BFFEE72E
:1003F0001004000800000020200000006C0100082C
:1004000030040008200000202807000088010008B0
:1004100000A24A04000000000000000001020304E2
:1004200006070809000000000000000000000000AE
:0400000508000131BD
:00000001FF
